:020000040000FA
:10000000831600308600831200308600013086009F
:100010000000023086000000043086000000083036
:1000200086000000103086000000203086000000AE
:10003000403086000000803086000000403086009E
:1000400000002030860000001030860000000830DC
:1000500086000000043086000000023086000000A8
:1000600001308600000000308600000081308600EC
:100070000000423086000000243086000000183066
:100080008600000024308600000042308600000018
:0C00900081308600000000308600062849
:02400E00563F1B
:00000001FF
